:1000000000000320D1010000CD1F0000851F00006B
:10001000851F0000851F0000851F0000851F000050
:10002000851F0000851F0000851F0000CD1F0000F8
:10003000CD1F0000851F0000612F0000653000000B
:10004000CD1F0000CD1F0000CD1F0000CD1F000000
:10005000CD1F0000CD1F0000CD1F0000CD1F0000F0
:10006000CD1F0000CD1F0000CD1F0000CD1F0000E0
:10007000CD1F0000CD1F0000CD1F0000CD1F0000D0
:10008000CD1F0000CD1F0000CD1F0000CD1F0000C0
:10009000CD1F0000CD1F0000CD1F0000CD1F0000B0
:1000A000CD1F0000CD1F0000CD1F0000CD1F0000A0
:1000B000CD1F0000CD1F0000CD1F00004932000001
:1000C000CD1F000075330000CD1F0000A1340000DB
:1000D000CD1F000099350000CD1F0000CD1F00008E
:1000E000CD1F0000CD1F0000CD1F0000CD1F000060
:1000F000CD1F0000CD1F0000CD1F0000CD1F000050
:10010000CD1F0000CD1F0000CD1F0000CD1F00003F
:10011000CD1F000069240000CD1F0000CD1F00008E
:10012000CD1F0000CD1F0000CD1F0000CD1F00001F
:10013000CD1F0000CD1F0000CD1F0000CD1F00000F
:10014000CD1F0000CD1F000091360000CD1F000024
:10015000CD1F0000CD1F0000CD1F0000CD1F0000EF
:10016000CD1F0000CD1F0000CD1F0000CD1F0000DF
:10017000CD1F0000CD1F0000CD1F0000CD1F0000CF
:10018000CD1F0000CD1F0000CD1F0000CD1F0000BF
:10019000CD1F0000CD1F000089370000CD1F0000DB
:1001A000CD1F0000CD1F0000CD1F0000CD1F00009F
:1001B000CD1F0000CD1F0000CD1F0000CD1F00008F
:1001C000CD1F0000CD1F0000CD1F0000CD1F00007F
:1001D0005C4B4CF2205210B51A804DF628121A8052
:1001E00000BF00BF01F0F6FE574B4FF030621A60BF
:1001F000564A9A60564ADA60564B4FF470021A60BB
:10020000554B564A1A60564A136813F4807304D14A
:1002100054490B604FF4A8531360534B1A781107DD
:1002200003D51A7842F008021A70504B5049AA229E
:100230001A70504A504B8B4204D252F8040F43F8C4
:10024000040BF8E74D4B4E4900228B4202D243F893
:10025000042BFAE74B494C4A002352F8230041F89B
:1002600023000133742BF8D1484B494A802103F80D
:10027000011B9342FBD1474B424A1A60464B8A22EC
:100280001A70A3F5805324225A70A0221A709A790A
:100290009207FCD59A79D406FCD4404A937903F0AE
:1002A0000C03082BFAD13E4B60221A7002331A78E5
:1002B000802AFCD1394B01221A715D225A719A7938
:1002C0009006FCD59979354A4906FBD5354B364918
:1002D00019600021596020231370937903F00C03F7
:1002E0000C2BFAD1314B324A1A60324B324A1A6027
:1002F00000225A60072243F8042C304AC3F80C2D20
:1003000062B601F077FF174B1B68DA0705D52C485A
:1003100001F0E2FE2B4B2C4A1A602C4B1B785B063B
:1003200009D5284C284B22689A4204D1244801F070
:10033000D3FE0023236003F00FFB01F051FE02F017
:1003400099FEFEE70E20054030800440823F040005
:100350000100002B88ED00E0002008E0030000858C
:1003600010D0034014D0034002D0074000E0074003
:10037000DC07FF1F783C00003007FF1FDC07FF1F72
:10038000940DFF1F0002FF1F0000000000E400E0CA
:1003900064E400E008ED00E0005006400040064044
:1003A00001E007404480044000000602048004404D
:1003B000C010070014E000E01FBF02000000202072
:1003C0006019145B1CE00340A5C3945A00F0074079
:1003D000FFFFFFFFFFFFFFFFFFFFFFFFFFFFFFFF2D
:1003E000FFFFFFFFFFFFFFFFFFFFFFFFFFFFFFFF1D
:1003F000FFFFFFFFFFFFFFFFFFFFFFFFFFFFFFFF0D
:10040000FFFFFFFFFFFFFFFFFFFFFFFFDEF9FFFF23
:1004100010B5054C237833B9044B13B10448AFF33E
:1004200000800123237010BDDC07FF1F00000000C7
:100430007C3C0000084B10B51BB108490848AFF3DD
:1004400000800848036803B910BD074B002BFBD0A0
:10045000BDE81040184700BF00000000E007FF1F84
:100460007C3C0000DC07FF1F000000004069704773
:10047000002070474FF4C870704700BF10B50121CD
:100480000446062001F03AFE1022024BA261E3610D
:1004900010BD00BFC0F00F402DE9F04F93B0002316
:1004A00004688DF824308DF825308DF826302568C5
:1004B000B34E0790B5428DF828300A468DF82930A2
:1004C0008DF82A3040F01583817C0C9209A801290F
:1004D0000D928DF83E308DF83F308DF840300B9006
:1004E00000F0CA828DF83D308DF83C308DF83B30FD
:1004F0008DF83A308DF839308DF83830A369A1493C
:1005000000228B428DF84120119240F0FA82079C24
:1005100001F0FAFD238CC01A83B2312BF8D99A4A24
:100520009DF83B1013689DF83D40019102949DF8A1
:100530003C109DF941409548009143F080739DF82F
:100540003950DDF82C8003949DF838A09DF83A903E
:100550009DF83E609DF83F109DF84070DDF830B08A
:10056000136002688A4C8B4B42F001020260002249
:1005700022601A681A6822F010021A60009B98F82C
:1005800001405D1B5FFA85FC002C40F017814B1C7D
:10059000049372B67E4B1968BBF1000F01F1E201C2
:1005A00040F3BB80721C05927A487A1C06921F4663
:1005B000019ACAEB020A009ACCEB020C029AC9EB30
:1005C00002095FFA8AFA5FFA8CFC5FFA89F972B65F
:1005D0001A688A4206D91A6842F27425521AAA4247
:1005E00000F2F6800568066845F0100526F0100652
:1005F0004FF0070E1A689142FCD839680560220650
:1006000001F1E20100F195801A688A1AC32AFBD829
:100610006400BEF1010E0660E4B2EBD11A689142AB
:10062000FCD839680560240601F1E20100F18B80F5
:100630001A688A1AC32AFBD8066098F800403CB1B1
:1006400084FA5AF4059AE4B204FB02F4C4F30724D2
:100650004FF0070E1A688A42FCD3396805602206FB
:1006600001F1E20179D41A688A1AC32AFBD864001E
:10067000BEF1010E0660E4B2ECD11A689142FCD8DA
:1006800039680560240601F1E2016FD41A688A1AFC
:10069000C32AFBD8066098F802403CB184FA59F4AA
:1006A000069AE4B204FB02F4C4F307244FF0070EE9
:1006B0001A688A42FCD339680560220601F1E2011A
:1006C0006AD41A688A1AC32AFBD86400BEF1010EE4
:1006D0000660E4B2ECD11A689142FCD83968056032
:1006E000240601F1E20160D41A688A1AC32AFBD8F1
:1006F000039A066090440BF1FF3B98F801403CB12F
:1007000084FA5CF4049AE4B202FB04F4C4F3072410
:1007100062B6BBF1000F7FF44BAF62B61C4B1B6897
:10072000002B56D001F0F0FC079B188413B0BDE8F5
:10073000F08F1A688A1A522A7FF66AAF1A688A1AE4
:10074000522AF6D864E71A688A1A522A7FF674AFDA
:100750001A688A1A522AF6D86EE71A688A1A522A32
:1007600085D91A688A1A522AF7D880E71A688A1A2D
:10077000522A8FD91A688A1A522AF7D88AE700BFF4
:10078000150B000095170000FCED00E0001000E0E4
:10079000041000E0C0F00F401A688A1A522A94D957
:1007A0001A688A1A522AF7D88FE71A688A1A522AC0
:1007B0009ED91A688A1A522AF7D899E784FA5CF403
:1007C000E3B24A1C02FB03F30492C3F30724E0E6FE
:1007D00062B662B640F6B833013BFDD172B6A24AAA
:1007E0009DF83B1013689DF83D40019102949DF8DF
:1007F0003C109DF941409D48009143F080739DF865
:100800003950DDF82C8003949DF838909DF83AA07B
:100810009DF83E609DF83F109DF84070DDF830B0C7
:1008200013600268924C934B42F001020260002276
:1008300022601A681A6822F010021A60009B98F869
:1008400001405D1B5FFA85FC002C00F0098184FAF1
:100850005CF4E3B24A1C02FB03F30492C3F30724E3
:1008600072B6834B1968BBF1000F01F1E20140F34E
:10087000BB80721C05927F487A1C06921F46019A23
:10088000C9EB0209009ACCEB020C029ACAEB020AED
:100890005FFA89F95FFA8CFC5FFA8AFA72B61A6815
:1008A0008A4206D91A6842F27425521AAA4200F204
:1008B00026810668056846F0100625F010054FF001
:1008C000070E1A688A42FCD339680660220601F1D5
:1008D000E20100F18D801A688A1AC32AFBD86400ED
:1008E000BEF1010E0560E4B2EBD11A689142FCD86A
:1008F00039680660240601F1E20100F183801A687C
:100900008A1AC32AFBD8056098F800403CB184FAE3
:1009100059F4059AE4B204FB02F4C4F307244FF03F
:10092000070E1A688A42FCD339680660220601F174
:10093000E20171D41A688A1AC32AFBD86400BEF196
:10094000010E0560E4B2ECD11A689142FCD8396816
:100950000660240601F1E20167D41A688A1AC32AE4
:10096000FBD8056098F802403CB184FA5AF4069A24
:10097000E4B204FB02F4C4F307244FF0070E1A6834
:100980008A42FCD339680660220601F1E20155D49F
:100990001A688A1AC32AFBD86400BEF1010E0560EA
:1009A000E4B2ECD11A689142FCD83968066022069C
:1009B00001F1E2014BD41A688A1AC32AFBD8039AC0
:1009C000056090440BF1FF3B98F801403CB184FA7C
:1009D0005CF4049AE4B202FB04F4C4F3072462B6A4
:1009E000BBF1000F7FF44BAF62B6214B1B6899E659
:1009F0001A688A1A522A7FF672AF1A688A1A522A1D
:100A0000F6D86CE71A688A1A522A7FF67CAF1A6801
:100A10008A1A522AF6D876E71A688A1A522A8DD983
:100A20001A688A1A522AF7D888E71A688A1A522A44
:100A300097D91A688A1A522AF7D892E71A688A1A36
:100A4000522AA9D91A688A1A522AF7D8A4E71A682A
:100A50008A1A522AB3D91A688A1A522AF7D8AEE7E4
:100A60004B1C0493FCE600BFFCED00E0001000E02E
:100A7000041000E0C0F00F40254B1A78013202F05C
:100A8000070212F0010F1A7014BF80230023900791
:100A900044BF43F04003DBB2510748BF43F020039B
:100AA00010330021DBB20DF13B020DF13E074FF494
:100AB0008076A9B196FBF1F1C9B2481CC0B200FB27
:100AC00003352D121070ECB205B1013C02F8034C55
:100AD00000B111700132BA4208D0D1780029E9D1B1
:100AE000117002F8031C0132BA42F6D1079B1C6850
:100AF00004E50AAB09A9A84713B0BDE8F08F62B6B8
:100B000010E607980BA9984713B0BDE8F08F00BF17
:100B1000F807FF1F2DE9F04F91B0847C5D780790B6
:100B2000012C18789B7809910A920B928DF8360067
:100B30008DF837508DF8383000F0CA8200238DF8D8
:100B400035308DF834308DF833308DF832308DF803
:100B500031308DF83030079CA94923689B69002209
:100B60008B428DF839200F9240F0EC8201F0CCFAE4
:100B7000238CC01A83B2312BF8D9A24A9DF83310C6
:100B800013689DF83540019102949DF834109DF949
:100B900039409D48009143F080739DF83150DDF855
:100BA000248003949DF830909DF832A09DF8366023
:100BB0009DF837109DF83870DDF828B01360026892
:100BC000924C934B42F001020260002222601A68AC
:100BD0001A6822F010021A60009B98F801405D1B11
:100BE0005FFA85FC002C40F01E824B1C049372B609
:100BF000864B1968BBF1000F01F1E20140F3BB80A5
:100C0000721C059282487A1C06921F46019AC9EB13
:100C10000209009ACCEB020C029ACAEB020A5FFAB4
:100C200089F95FFA8CFC5FFA8AFA72B61A68914207
:100C300006D21A6842F27425521AAA4200F2EA80D9
:100C40000568066845F0100526F010064FF0070EFF
:100C50001A689142FCD839680560220601F1E20168
:100C600000F195801A688A1AC32AFBD86400BEF185
:100C7000010E0660E4B2EBD11A689142FCD83968E3
:100C80000560240601F1E20100F18B801A688A1ADE
:100C9000C32AFBD8066098F800403CB184FA59F4A6
:100CA000059AE4B204FB02F4C4F307244FF0070EE4
:100CB0001A688A42FCD339680560220601F1E20114
:100CC00079D41A688A1AC32AFBD86400BEF1010ECF
:100CD0000660E4B2ECD11A689142FCD8396805602C
:100CE000240601F1E2016FD41A688A1AC32AFBD8DC
:100CF000066098F802403CB184FA5AF4069AE4B2CD
:100D000004FB02F4C4F307244FF0070E1A688A426A
:100D1000FCD339680560220601F1E2015DD41A684E
:100D20008A1AC32AFBD86400BEF1010E0660E4B241
:100D3000ECD11A689142FCD839680560240601F1AB
:100D4000E20153D41A688A1AC32AFBD8039A0660B0
:100D500090440BF1FF3B98F801403CB184FA5CF4FD
:100D6000049AE4B202FB04F4C4F3072462B6BBF1B4
:100D7000000F7FF44BAF62B6244B1B68002B4AD0A8
:100D800001F0C2F9079B188411B0BDE8F08F1A6812
:100D90008A1A522A7FF66AAF1A688A1A522AF6D835
:100DA00064E71A688A1A522A7FF674AF1A688A1A98
:100DB000522AF6D86EE71A688A1A522A85D91A6812
:100DC0008A1A522AF7D880E71A688A1A522A8FD9C3
:100DD0001A688A1A522AF7D88AE71A688A1A522A8F
:100DE000A1D91A688A1A522AF7D89CE71A688A1A6F
:100DF000522AABD91A688A1A522AF7D8A6E700BF36
:100E000095170000FCED00E0001000E0041000E089
:100E1000C0F00F4062B662B640F6B833013BFDD178
:100E200072B6A74A9DF8331013689DF835400191BA
:100E300002949DF834109DF93940A248009143F086
:100E400080739DF83150DDF8248003949DF8309034
:100E50009DF832A09DF836609DF837109DF83870E7
:100E6000DDF828B013600268974C984B42F00102FD
:100E70000260002222601A681A6822F010021A60CA
:100E8000009B98F801405D1B5FFA85FC002C40F048
:100E90000C814B1C049372B68B4B1968BBF1000F8D
:100EA00001F1E20140F3BB80721C059287487A1C75
:100EB00006921F46019AC9EB0209009ACCEB020C7C
:100EC000029ACAEB020A5FFA89F95FFA8CFC5FFAB0
:100ED0008AFA72B61A688A4206D91A6842F27425EA
:100EE000521AAA4200F22C810668056846F01006E4
:100EF00025F010054FF0070E1A688A42FCD33968B6
:100F00000660220601F1E20100F197801A688A1A50
:100F1000C32AFBD86400BEF1010E0560E4B2EBD138
:100F20001A689142FCD839680660240601F1E20192
:100F300000F18D801A688A1AC32AFBD8056098F8D8
:100F400000403CB184FA59F4059AE4B204FB02F47F
:100F5000C4F307244FF0070E1A688A42FCD339689D
:100F60000660220601F1E2017BD41A688A1AC32ABC
:100F7000FBD86400BEF1010E0560E4B2ECD11A6842
:100F80009142FCD839680660240601F1E20171D46F
:100F90001A688A1AC32AFBD8056098F802403CB147
:100FA00084FA5AF4069AE4B204FB02F4C4F3072468
:100FB0004FF0070E1A688A42FCD339680660220691
:100FC00001F1E2015FD41A688A1AC32AFBD86400CF
:100FD000BEF1010E0560E4B2ECD11A689142FCD872
:100FE00039680660220601F1E20155D41A688A1AAE
:100FF000C32AFBD8039A056090440BF1FF3B98F895
:1010000001403CB184FA5CF4049AE4B202FB04F4BB
:10101000C4F3072462B6BBF1000F7FF44BAF62B696
:10102000294B1B68ACE684FA5CF4E3B24A1C02FB71
:1010300003F30492C3F30724D9E51A688A1A522AE3
:101040007FF668AF1A688A1A522AF6D862E71A68D9
:101050008A1A522A7FF672AF1A688A1A522AF6D86A
:101060006CE71A688A1A522A83D91A688A1A522A8D
:10107000F7D87EE71A688A1A522A8DD91A688A1A0E
:10108000522AF7D888E71A688A1A522A9FD91A680A
:101090008A1A522AF7D89AE71A688A1A522AA9D9BC
:1010A0001A688A1A522AF7D8A4E784FA5CF4E3B2E1
:1010B0004A1C02FB03F30492C3F30724EBE600BFD0
:1010C000FCED00E0001000E0041000E0C0F00F4074
:1010D0001F4B1A78013202F0070212F0010F1A704A
:1010E00014BF80230023940744BF43F04003DBB2C6
:1010F000510748BF43F020031033DBB20DF1330238
:101100000DF136074FF48076B0B196FBF0F1C9B21D
:10111000481CC0B200FB03352D121070ECB205B1B3
:10112000013C02F8034C00B111700132BA423FF4A5
:1011300012ADD0780028E8D1107002F8030CF4E763
:1011400062B61DE6079809A9984711B0BDE8F08F6F
:10115000F807FF1F2DE9F04F91B0847C5D78079070
:10116000012C18789B7809910A920B928DF8360021
:101170008DF837508DF8383000F0CA8200238DF892
:1011800035308DF834308DF833308DF832308DF8BD
:1011900031308DF83030079CA94A23689B690320C1
:1011A000002193428DF839000F9140F0EB8200F05E
:1011B000ABFF238CC01A83B2312BF8D9A14A9DF81A
:1011C000331013689DF83540019102949DF8341056
:1011D0009DF939409C48009143F080739DF831504F
:1011E000DDF8248003949DF830909DF832A09DF89E
:1011F00036609DF837109DF83870DDF828B0136020
:101200000268924C924B42F001020260002222607E
:101210001A681A6822F010021A60009B98F80140C0
:101220005D1B5FFA85FC002C40F01D824B1C049373
:1012300072B6864B1968BBF1000F01F1E20140F371
:10124000BB80721C059282487A1C06921F46019A46
:10125000C9EB0209009ACCEB020C029ACAEB020A13
:101260005FFA89F95FFA8CFC5FFA8AFA72B61A683B
:101270008A4206D91A6842F27425521AAA4200F22A
:10128000E9800568066845F0100526F010064FF065
:10129000070E1A689142FCD839680560220601F1F0
:1012A000E20100F195801A688A1AC32AFBD864000B
:1012B000BEF1010E0660E4B2EBD11A689142FCD88F
:1012C00039680560240601F1E20100F18B801A689B
:1012D0008A1AC32AFBD8066098F800403CB184FA09
:1012E00059F4059AE4B204FB02F4C4F307244FF066
:1012F000070E1A688A42FCD339680560220601F19C
:10130000E20179D41A688A1AC32AFBD86400BEF1B4
:10131000010E0660E4B2ECD11A689142FCD839683B
:101320000560240601F1E2016FD41A688A1AC32A03
:10133000FBD8066098F802403CB184FA5AF4069A49
:10134000E4B204FB02F4C4F307244FF0070E1A685A
:101350008A42FCD339680560220601F1E2015DD4BE
:101360001A688A1AC32AFBD86400BEF1010E06600F
:10137000E4B2ECD11A689142FCD8396805602406C1
:1013800001F1E20153D41A688A1AC32AFBD8039ADE
:10139000066090440BF1FF3B98F801403CB184FAA1
:1013A0005CF4049AE4B202FB04F4C4F3072462B6CA
:1013B000BBF1000F7FF44BAF62B6244B1B68002BD0
:1013C00049D000F0A1FE079B188411B0BDE8F08F52
:1013D0001A688A1A522A7FF66AAF1A688A1A522A3B
:1013E000F6D864E71A688A1A522A7FF674AF1A6828
:1013F0008A1A522AF6D86EE71A688A1A522A85D9AA
:101400001A688A1A522AF7D880E71A688A1A522A62
:101410008FD91A688A1A522AF7D88AE71A688A1A5C
:10142000522AA1D91A688A1A522AF7D89CE71A6850
:101430008A1A522AABD91A688A1A522AF7D8A6E70A
:1014400095170000FCED00E0001000E0041000E043
:10145000C0F00F4062B662B640F6B833013BFDD132
:1014600072B6A74A9DF8331013689DF83540019174
:1014700002949DF834109DF93940A248009143F040
:1014800080739DF83150DDF8248003949DF83090EE
:101490009DF832A09DF836609DF837109DF83870A1
:1014A000DDF828B013600268974C984B42F00102B7
:1014B0000260002222601A681A6822F010021A6084
:1014C000009B98F801405D1B5FFA85FC002C40F002
:1014D0000C814B1C049372B68B4B1968BBF1000F47
:1014E00001F1E20140F3BB80721C059287487A1C2F
:1014F00006921F46019AC9EB0209009ACCEB020C36
:10150000029ACAEB020A5FFA89F95FFA8CFC5FFA69
:101510008AFA72B61A68914206D21A6842F27425A3
:10152000521AAA4200F22C810668056846F010069D
:1015300025F010054FF0070E1A688A42FCD339686F
:101540000660220601F1E20100F197801A688A1A0A
:10155000C32AFBD86400BEF1010E0560E4B2EBD1F2
:101560001A689142FCD839680660240601F1E2014C
:1015700000F18D801A688A1AC32AFBD8056098F892
:1015800000403CB184FA59F4059AE4B204FB02F439
:10159000C4F307244FF0070E1A688A42FCD3396857
:1015A0000660220601F1E2017BD41A688A1AC32A76
:1015B000FBD86400BEF1010E0560E4B2ECD11A68FC
:1015C0009142FCD839680660240601F1E20171D429
:1015D0001A688A1AC32AFBD8056098F802403CB101
:1015E00084FA5AF4069AE4B204FB02F4C4F3072422
:1015F0004FF0070E1A688A42FCD33968066022064B
:1016000001F1E2015FD41A688A1AC32AFBD8640088
:10161000BEF1010E0560E4B2ECD11A689142FCD82B
:1016200039680660220601F1E20155D41A688A1A67
:10163000C32AFBD8039A056090440BF1FF3B98F84E
:1016400001403CB184FA5CF4049AE4B202FB04F475
:10165000C4F3072462B6BBF1000F7FF44BAF62B650
:10166000294B1B68ADE684FA5CF4E3B24A1C02FB2A
:1016700003F30492C3F30724DAE51A688A1A522A9C
:101680007FF668AF1A688A1A522AF6D862E71A6893
:101690008A1A522A7FF672AF1A688A1A522AF6D824
:1016A0006CE71A688A1A522A83D91A688A1A522A47
:1016B000F7D87EE71A688A1A522A8DD91A688A1AC8
:1016C000522AF7D888E71A688A1A522A9FD91A68C4
:1016D0008A1A522AF7D89AE71A688A1A522AA9D976
:1016E0001A688A1A522AF7D8A4E784FA5CF4E3B29B
:1016F0004A1C02FB03F30492C3F30724EBE600BF8A
:10170000FCED00E0001000E0041000E0C0F00F402D
:101710001F4B1A78013202F0070212F0010F1A7003
:1017200014BF80230023940744BF43F04003DBB27F
:10173000510748BF43F020031033DBB20DF13302F1
:101740000DF136074FF48076B0B196FBF0F1C9B2D7
:10175000481CC0B200FB03352D121070ECB205B16D
:10176000013C02F8034C00B111700132BA423FF45F
:1017700012ADD0780028E8D1107002F8030CF4E71D
:1017800062B61EE6079809A9984711B0BDE8F08F28
:10179000F807FF1F2DE9F04F8BB004460990089120
:1017A00000F0B2FC238CC01A83B2312BF8D9089C0C
:1017B0009E4AE07B13680290207C657C0190204665
:1017C000667BD4F8008094F80C9094F80EA00395F2
:1017D000A77CE57C94F814E0954994F915400494AD
:1017E00043F08073D0F804B013600A689148924BBC
:1017F00042F001020A60002202601A681A68019829
:1018000022F010021A6098F80140861B5FFA86FCED
:10181000002C40F058826B1C059372B6854B1968FA
:10182000BBF1000F01F1E20140F3BC807A1C06928B
:1018300081480EF1010207921F46029AC9EB020984
:10184000019ACCEB020C039ACAEB020A5FFA89F9FF
:101850005FFA8CFC5FFA8AFA72B61A688A4206D975
:101860001A6842F27425521AAA4200F2E78005680B
:10187000066845F0100526F010064FF0070E1A68AE
:101880008A42FCD339680560220601F1E20100F1C9
:1018900095801A688A1AC32AFBD86400BEF1010E2B
:1018A0000660E4B2EBD11A689142FCD83968056051
:1018B000240601F1E20100F18B801A688A1AC32A1A
:1018C000FBD8066098F800403CB184FA59F4069AB7
:1018D000E4B204FB02F4C4F307244FF0070E1A68C5
:1018E0009142FCD839680560220601F1E20179D401
:1018F0001A688A1AC32AFBD86400BEF1010E06607A
:10190000E4B2ECD11A689142FCD83968056024062B
:1019100001F1E2016FD41A688A1AC32AFBD8066063
:1019200098F802403CB184FA5AF4079AE4B204FBF6
:1019300002F4C4F307244FF0070E1A688A42FCD35E
:1019400039680560220601F1E2015DD41A688A1A3D
:10195000C32AFBD86400BEF1010E0660E4B2ECD1EC
:101960001A689142FCD839680560240601F1E20149
:1019700053D41A688A1AC32AFBD8049A0660904482
:101980000BF1FF3B98F801403CB184FA5CF4059AF6
:10199000E4B202FB04F4C4F3072462B6BBF1000F07
:1019A0007FF44BAF62B6234B1B68002B47D000F08F
:1019B000ABFB099B18840BB0BDE8F08F1A688A1A3C
:1019C000522A7FF66AAF1A688A1A522AF6D864E752
:1019D0001A688A1A522A7FF674AF1A688A1A522A2B
:1019E000F6D86EE71A688A1A522A85D91A688A1AAE
:1019F000522AF7D880E71A688A1A522A8FD91A68A9
:101A00008A1A522AF7D88AE71A688A1A522AA1D95A
:101A10001A688A1A522AF7D89CE71A688A1A522A30
:101A2000ABD91A688A1A522AF7D8A6E7FCED00E06B
:101A3000001000E0041000E0C0F00F4062B662B693
:101A400040F6B833013BFDD172B6089FA54AF97B39
:101A500013687E7C02913C46397C94F915E0089C21
:101A6000A1487D7B019143F08073D7F8008097F8FF
:101A70000CA097F80E900396F97CBE7CCDF810E090
:101A80003F7DD4F804B013600268984C984B42F044
:101A900001020260002222601A681A6822F0100215
:101AA0001A60019B98F801405D1B5FFA85FC002CD1
:101AB00000F0138184FA5CF4E3B24A1C02FB03F3E6
:101AC0000592C3F3072472B6884B1968BBF1000F67
:101AD00001F1E20140F3BB80721C069284487A1C3B
:101AE00007921F46029ACAEB020A019ACCEB020C3B
:101AF000039AC9EB02095FFA8AFA5FFA8CFC5FFA73
:101B000089F972B61A688A4206D91A6842F27425AF
:101B1000521AAA4200F2E4800668056846F01006F0
:101B200025F010054FF0070E1A688A42FCD3396879
:101B30000660220601F1E20100F18D801A688A1A1E
:101B4000C32AFBD86400BEF1010E0560E4B2EBD1FC
:101B50001A689142FCD839680660240601F1E20156
:101B600000F183801A688A1AC32AFBD8056098F8A6
:101B700000403CB184FA5AF4069AE4B204FB02F441
:101B8000C4F307244FF0070E1A688A42FCD3396861
:101B90000660220601F1E20171D41A688A1AC32A8A
:101BA000FBD86400BEF1010E0560E4B2ECD11A6806
:101BB0009142FCD839680660240601F1E20167D43D
:101BC0001A688A1AC32AFBD8056098F802403CB10B
:101BD00084FA59F4079AE4B204FB02F4C4F307242C
:101BE0004FF0070E1A688A42FCD339680660220655
:101BF00001F1E20155D41A688A1AC32AFBD864009D
:101C0000BEF1010E0560E4B2ECD11A689142FCD835
:101C100039680660220601F1E2014BD41A688A1A7B
:101C2000C32AFBD8049A056090440BF1FF3B98F857
:101C300001403CB184FA5CF4059AE4B202FB04F47E
:101C4000C4F3072462B6BBF1000F7FF44BAF62B65A
:101C5000264B1B68ABE61A688A1A522A7FF672AFC7
:101C60001A688A1A522AF6D86CE71A688A1A522A0F
:101C70007FF67CAF1A688A1A522AF6D876E71A6875
:101C80008A1A522A8DD91A688A1A522AF7D888E7EE
:101C90001A688A1A522A97D91A688A1A522AF7D8C1
:101CA00092E71A688A1A522AA9D91A688A1A522AF5
:101CB000F7D8A4E71A688A1A522AB3D91A688A1A76
:101CC000522AF7D8AEE784FA5CF4E3B26A1C02FB4E
:101CD00003F30592C3F307249FE54B1C0593F2E63B
:101CE00062B664E6FCED00E0001000E0041000E0E5
:101CF000C0F00F401848036870B513F0010407D016
:101D000000235E2215491648BDE8704000F078B8FF
:101D100000F068F90028F3D01249114B08685C60A4
:101D2000FF2201255C619C609D741A735A739A733B
:101D3000DA731A745A7460B10B4A116801B18B607E
:101D400000240A4904481C841360196000F050F90B
:101D5000D6E70B60F0E700BFFC07FF1F2408FF1F5A
:101D60000008FF1F5009FF1F6009FF1FEC3900002A
:101D70002DE9F84F1F4CDFF88080671C04F58D7B40
:101D800026464FF05F0A4FF09E09A02307F801ACEA
:101D90000025B37086F8019098F80010164800F0FE
:101DA00081F8033607F8015C052006F8025C06F8A6
:101DB000015C00F0CDF95E4507F10307E5D10F4F57
:101DC000FF2698F800100C4884F8176184F8186111
:101DD00084F8196100F066F8033C84F81A5184F81D
:101DE0001B5184F81C510A2000F0B2F9BC42E8D122
:101DF000BDE8F88F2408FF1F4009FF1F0A07FF1FD7
:101E0000F8B51E1E03680446CCBF02EB4205002550
:101E10000F469B68D8BF164698477A1923686260B8
:101E20005B690A4A6661934201D12046F8BD2046AB
:101E300098470028F9D0064A064B516893FBF0F00A
:101E4000884238BF084650602046F8BD7104000043
:101E50004009FF1F40420F0070B40F4C2268531C12
:101E60008A4283B0236013DB0C4D0D4A296801912F
:101E700001992D6800951668009D15604FF47A72DF
:101E80000025891B02FB03F32560B3FBF1F34380BC
:101E900003B070BC704700BF5409FF1F6409FF1FE7
:101EA0005C09FF1F2DE9F04F43682D4C83B00646B7
:101EB0008946002B4BD100F027F9F36820601BB155
:101EC0004846B16898478146264B1C680025002C7F
:101ED00036D07388A77C61686269632B236898BFDA
:101EE000A574D3F804808DF804508DF805508DF852
:101EF0000650B9F1000F1CD004F10B030DF1040ED4
:101F000004F10E0C13F801BFBBF1000F0DD093F8D4
:101F100003A00AF101000BFB0000BAF1000F04D08E
:101F200009FB00F0000C8EF8000063450EF1010E75
:101F3000E8D1204601ABC047A774A468002CC8D1E3
:101F400030461921FFF788FF03B0BDE8F08F00F09D
:101F5000DBF822687368801A9842AAD3ABE700BF07
:101F60005809FF1F5009FF1F00207047044B002233
:101F7000FF204FF0FF31187099605A80DA60704787
:101F80004009FF1F08B5104C08E0236859050DD41F
:101F900023681A050FD42368DB0411D4236858037F
:101FA000F3D500F061FA23685905F1D501F04CF939
:101FB00023681A05EFD501F0DDF92368DB04EDD5C0
:101FC00001F06EFAEAE700BF3480044008B5FFF77D
:101FD000D9FF00BF014B10221A8070470020054036
:101FE000704700BF0078B0FA80F04009704700BF2A
:101FF00001230370704700BF084A1378802B01D07B
:10200000002070470649074B0748086000211970F7
:102010001378802BFCD00120704700BF03E00740FD
:102020004480044001E0074000002822094A137858
:10203000012B01D00020704703F1804303F5FC23FE
:10204000602119701378802BFCD1034B034A1A606E
:102050000120704703E0074044800440000006026E
:102060001C4A02EBC00301295B6811D004291BD074
:1020700052F83000002280F8802229B1022920D0B5
:10208000032922D01A6070474FF480721A6070479B
:1020900052F830004FF4A27280F880121A601A6869
:1020A00022F020021A60704752F830104FF4A272EA
:1020B000012081F880021A601A6842F020021A603A
:1020C000704740F203121A6070474FF481721A6031
:1020D000704700BF083A000030B4054B054D064C70
:1020E000002210211A602A602060196030BC7047FD
:1020F00014D0034004D0034000D003403F2801D84F
:10210000FFF7AEBF704700BF72B60D490D4B0E4AC8
:102110001B680868126862B6520102D5322B88BF6C
:102120000130C3F52F33094903F21F334FF47A729C
:102130009B08A1FB031302FB00F000EB9300704728
:102140006409FF1F18E000E004ED00E0176CC11601
:102150002DE9F843054672B6224F234B234A1B68EC
:102160003C68126862B6520102D5322B88BF013436
:10217000B5B3C3F52F3303F21F331D4EDFF868905C
:10218000DFF868809B084FF47A72A6FB031302FB0A
:1021900004F404EB930472B6D9F800103A68D8F846
:1021A00000E062B6C1F52F3303F21F339B08A6FB94
:1021B00003031EF0806FC4EB93034FF47A7002D0D8
:1021C000322988BF013200FB0233B3F57A7F04D392
:1021D000013D05D004F57A74DDE700F053FFDAE73E
:1021E000BDE8F8836409FF1F18E000E004ED00E09B
:1021F000176CC116F8B54E4B4E48DFF85CC14E4C1B
:102200004E49DFF858E14E4E4E4D4F4F4FF00062B1
:102210001A604FF080521A604FF000521A604FF06F
:1022200080421A604FF000421A60002202602823A8
:102230004EF6FF70CCF80000CEF8003023600EF5AB
:10224000012E0B6033602B6006F500263B6005F520
:102250000025A36207F500278B6204F5012401F530
:10226000012106F6E87605F6E87507F57F67103177
:102270000EF1100E203433602B60CEF800303B603E
:102280000B602360314CBB618B6109212160A7F594
:10229000002704F58054203F08343A602060BB607A
:1022A000E36047F8041C04F5FD2407F5FE27043716
:1022B00004F2FC7422603860A360FB6044F8041CE4
:1022C000083404F6FC74C7F8FC2F2060A4F5E12460
:1022D000A4F2DC7433602B60C7F8F81F21681C4837
:1022E00041F40071216001681A4C0EF57F4E0EF129
:1022F000E80E07F5883706F5803605F5803541F09C
:1023000000710160CEF8002047F6FF7108223960A5
:1023100033602B60226000F017FF3220FFF718FFB8
:1023200000F0CEFC4FF4AF70BDE8F840FFF710BFEF
:1023300004E100E004800340148003401C8003405B
:10234000248003402C8003403480034000800340FD
:102350000480044000900C40088003400C8003403F
:10236000F0B472B61A491B4E012311F8014B194FF4
:102370009A00240742F0010505D556F8324064B1B1
:1023800056F83520BAB10133052BEED162B6124BA7
:1023900000221A70F0BC00F01BBD0F4C0F4D2178CD
:1023A00047F8325007EB431308304A1E586022703A
:1023B00062B6F0BC70470849094B0A7847F83530D7
:1023C00007EBC5030830013A58600A7062B6F0E7BF
:1023D000083C00000000FF1F3D0AFF1F880040006E
:1023E000C8004000431E032B1DD81B4A400140F08B
:1023F000100030B4104472B6184CE25C032A1BD8AB
:10240000DFE802F00212151703220D88E25410F0E3
:10241000080F14BFC823882343EA0543083103602B
:10242000416062B630BC704708300222EDE70522F9
:10243000EBE708300422E8E7094A52F8230038B1F4
:10244000084A52F82300416042F8231062B6E9E7D7
:1024500042F82310034AF7E70000FF1F4C0AFF1F52
:10246000140AFF1F240AFF1F2DE9F04FDFF804A311
:10247000DFF804B387B044E0A94F4FEA930807EBB5
:10248000C809013ED9F8042003F00803F6B2A2F10E
:10249000080003F0FF04002B40F0FE8057F83830AE
:1024A0001B0C99B222F8081C002B00F0EC809D4B0D
:1024B00022F8064C42F8044C53F82620002A00F07B
:1024C0002B82994D55F826305860984C45F82600D7
:1024D00034F81630194424F8161000F059FC00287E
:1024E00000F01382924A934B19F0080F00F1080094
:1024F00018BF1346C9F8040047F8383008238AF893
:1025000000309AF80040E4B260071AD58A4B1B7875
:10251000A3B18A490A7802F0FF0322B1013BDBB282
:102520000B7003B900BE86490A7802F0FF032AB196
:10253000013BDBB20B70002B00F0BD8104238AF855
:10254000003004F0080303F0FF02002B00F0C88005
:102550009BF80030DBB21E098ED19C08704F57F8F3
:10256000342007EBC401C2F38302013A49680C2A04
:1025700000F28580DFE802F07979838383838383A7
:1025800042838383070008686E4B6F4D0193684B4D
:102590004A686E4E47F8343081B240F28164694B2C
:1025A0006A60286000220120A1421A603A61BA6183
:1025B000307000F2E380B1F5D06F80F02782B1F582
:1025C000817F00F0E08100F2C381802900F0368233
:1025D000822940F0DE81A9885D4B01F07F0104294A
:1025E00000F2D8815B4C89000B44227062701A782B
:1025F000930740F122832070022023E2514B019384
:102600001A683AB3544B514E5449188834780D78AF
:102610004028864645F0020828BF4FF0400E002CA7
:1026200084F001043470CEEB00000CBF8824C82471
:1026300007EBC80680B285F0010544EA0E447260DB
:10264000188047F8384072440D70002800F0B780B9
:10265000019B1A603C4B1A88B2F5A06F0FD1002184
:102660009A7859703E4B1A7009E0374A108842F246
:102670002102904200F0A8802D4A47F83420394AC0
:10268000012313703AE72A4A2A4B19F0080F18BFA2
:10269000134647F8383031E700F09AFB324A3349A5
:1026A00052F82630002B00F03B8158688C5D42F8D0
:1026B000260003F10802C9F80420032C05D8DFE83E
:1026C00004F02C02292602228A551A8819F0080FD4
:1026D0000CBF8823C82343EA024347F838300DE78C
:1026E000E00700F1EB80210600F12881A20706D562
:1026F0001F4A204913780220DBB213700870E306EA
:1027000002D51C4B10221A7007B0BDE8F08F0422CE
:102710008A55DAE705228A55D7E703228A55D4E796
:102720000000FF1FC009FF1F6C09FF1F800DFF1F66
:10273000C800400088004000480AFF1FD109FF1F61
:10274000500AFF1F6809FF1F340AFF1FD009FF1F2F
:10275000C0200740400AFF1F7C09FF1F3C0AFF1FE3
:102760009820074094200740140AFF1F4C0AFF1FBF
:1027700088200740802007409020074042F2210433
:10278000A14200F0948043D8B1F5086F00F0A88111
:10279000B1F5106F40F0FD80B84AB94CA9781170BE
:1027A00004F1800503E00834AC4200F09E81236A06
:1027B0001906F8D5606A083800F00AFBF3E7BEF1A5
:1027C000400F18BF002243E7AE4ACD1D11F8013B70
:1027D00002F8013FA942F9D1AB4A1268862A00F0FB
:1027E0001181AA49AA4E0A78307882F001050028A2
:1027F00042F002020D700CBF8821C82147F8321048
:1028000007EBC20280F0010000213070516033E715
:1028100042F22124A14240F0FE81DFF8BCC29D4B70
:102820009D49AC78DCF800501D6081460C7000209A
:10283000029080468446044694490D7845F0020E85
:1028400007EBCE03B9F1000F5C600CBF8824C824ED
:1028500044EA080385F0010447F83E3032700C70FA
:10286000DFF81CE28A4BDFF82482002840F09880D1
:10287000BCF1400F1BD144F0020407EBC403029FDC
:10288000DFF8FCE15F60002A40F09F80020442F024
:10289000880207444EF8342086F800900D703B46BD
:1028A000402804D100207D4A019910800B607C4AA9
:1028B00001231370E3E600F0BFFA3FE6704B78485F
:1028C00072491A614FF0020E80F800E0754F0A70ED
:1028D000754919609960754E754D764C9A610D2158
:1028E0003970FF213170DFF8F4E129702270724DE8
:1028F000724A8EF800109F27012406F8047C5D6060
:102900000470DA6007B0BDE8F08F6D4A47F8380010
:10291000137801331370F1E543F82600694DD4E5CF
:102920008B5D032B67D801A252F823F0FD24000031
:10293000FD240000812900007B29000059495C4BDF
:1029400080220D2008701A70A2077FF5D8AECFE65E
:1029500040F20232914240F05681A98801F07F0195
:10296000042916D86A88A2B94E4C89000C448146C5
:10297000217841F00201217059E701238B55BDE513
:1029800000238B55BAE5A98801F07F01042940F2A4
:102990004781444B0F221A70414A012313706EE69F
:1029A00040287FF668AF44F002040EEBC401029E9B
:1029B0004E60AAB1444A83F800903346403888F804
:1029C000005040334EF834206DE70204029B86F835
:1029D000009042F0C8020D7003444EF834205FE7C7
:1029E00083F80090029B304A88F80050403840330A
:1029F0004EF8342057E719F0080F0CBF02230323C9
:102A00008B557BE5314A0F211170EAE6304A546854
:102A1000002CBED06888B5F804E003E00C3254689E
:102A2000002CB6D013888342F8D153887345F5D172
:102A3000000A03280CBF2078108903E0254C0220EF
:102A400022706270EA88824280F00C810F490D7812
:102A5000402A45F0020E944607EBCE0028BF4FF007
:102A6000400C04EB0C0344600293CCEB02004FEAF1
:102A70000C484FF001090022C824E9E6480AFF1F6C
:102A80000000FF1F870DFF1F880DFF1F3C0AFF1F5F
:102A9000D009FF1F900DFF1F5C0AFF1F7C09FF1F5D
:102AA00094200740C020074088004000882007404D
:102AB00080200740982007408009FF1FD409FF1F8E
:102AC0003D0AFF1F6C09FF1FC8004000D109FF1F0E
:102AD0000C3C0000400AFF1F6409FF1F8C200740C8
:102AE000684A694C12782270ACE76849684B694AB9
:102AF00002916949694C6A4D039405964FF00009AB
:102B000088461C4616460495206828B1456800F0A2
:102B10005FF92846002DF9D100232360049B30681B
:102B20001A46002342F8293028B1456800F050F9D0
:102B30002846002DF9D100223260029A98F8003020
:102B40001146002241F8042B039A0291023B4FF0F8
:102B5000000122F81910032B07D8DFE803F0340234
:102B600034024FF0010388F8003009F10109B9F18E
:102B7000040F04F1040406F1040608F10108C3D1AE
:102B8000484B059EDFF83091DFF830810021197045
:102B9000012518F8013B09F8043B1A0718D4AC00CA
:102BA00044F0020244F00304002347F8323047F8AF
:102BB00034303D4B994505F10105EAD196F8009076
:102BC00089F0010233E64FF0000388F80030CCE7CB
:102BD00000F0DEF8AC0007EB451300F10802002816
:102BE00037D05A60314B47F8343000F0D1F844F018
:102BF000010307EBC30200F1080100B351602C4A46
:102C000047F83320CCE7B1F5A06F7FF4C2AE0022C5
:102C10004FF001090BE642F221329142F7D0B8E6BB
:102C20006A88002A7FF4B5AE224C89000C448146A4
:102C3000217821F002012170F9E5022002E7194B09
:102C400044F001021B7847F83200164A0133137032
:102C5000A6E7144B134A1B78AC00013347F8340045
:102C60001370C2E74028844628BF4FF0400C04EBA5
:102C70000C03CCEB00004FEA0C48029300224FF00B
:102C80000109D9E5480AFF1F400AFF1F240AFF1F58
:102C9000C009FF1F140AFF1F4C0AFF1F800DFF1FF2
:102CA0006C09FF1F3D0AFF1FD42007408800400029
:102CB000C8004000C0200740C4200740083C000076
:102CC0002DE9F041274C00F0D1FD002204F18800ED
:102CD00023461A605A60083383424FF00001F8D14E
:102CE0002148224A0368DFF89CE0214E214D224F03
:102CF000DFF894C0DFF8948043F480230360136806
:102D000043F04073136003238EF80030A023337028
:102D100002F5C922C4F3072300F528302B70803058
:102D2000C4F3074310323B70240EFF230470134D8D
:102D30008CF80030124888F800301370012306F830
:102D4000AC3C4FF400140EF8441C7026102107F818
:102D50002C3C2E70046082F8F810AEF1440EBDE8F1
:102D6000F08100BF0000FF1F3480044000D8004005
:102D7000402107409C200740B020074035E400E098
:102D800004E100E0442107408020074088200740FC
:102D900072B60D480268B2FA82F30B2B10DC4FF0CA
:102DA0000041D94022EA0102026062B6074803EB03
:102DB000C303DB00C2180021C150104651607047A8
:102DC00062B60020704700BF3007FF1FD003FF1F0F
:102DD0000D4B0E4AC31AA2FB03231B090B2B0CD865
:102DE0000B4A127852B972B60A484FF00041026895
:102DF00021FA03F31A43026062B67047064A12785A
:102E0000002AF0D0FFF7ACBAD003FF1F398EE338A9
:102E10003D0AFF1F3007FF1F480AFF1F044B054AEA
:102E20001B6890881BB11A885B88D31A18447047B6
:102E3000580AFF1F800DFF1F38B50E4B1B7873B962
:102E40000D4C216861B103F0FF054B880B80042015
:102E5000FFF7C8FA256038BD084B01221A7038BD4B
:102E6000FFF796FF0028F7D00146BDE83840042060
:102E7000FFF7B8BA510AFF1F540AFF1F500AFF1F7D
:102E800010B4EFF3108272B6437F33B9017F01298A
:102E900008D0032910D00123437702B962B65DF848
:102EA000044B7047114C2168A1B1114943610B6873
:102EB000836108605861EEE70E4C216881B10E49CC
:102EC00043610B688361086058610C4B4FF080517F
:102ED0001960E0E7064B4161816120601860DAE724
:102EE000054B4161816120601860EEE7700AFF1FA9
:102EF0006C0AFF1F600AFF1F640AFF1F04ED00E059
:102F000010B4047F4160022CC26003D05DF8044B12
:102F1000FFF7B6BF83685DF8044B184770B5EFF351
:102F2000108272B60C4C206880B10C4E00254369AB
:102F3000236073B19D6102B962B645778368984793
:102F4000EFF3108272B620680028F0D102B962B6A1
:102F500070BD3360EFE700BF600AFF1F640AFF1F08
:102F6000FFF7DCBF184A30B41468002C27D0036880
:102F700021688B420ED2CB1A00218460C16023608D
:102F8000E06010600223037530BC704711688B420B
:102F9000144608D3A2685B1A0360002AF6D1826047
:102FA000C460A060EEE7D268C2608460E060C5687B
:102FB000CB1A0222A8602360027530BC704784607F
:102FC000C4601060DEE700BF680AFF1FF8B5224E3C
:102FD00034682CB32368002B3AD1204F1D4604E0FF
:102FE0003468ECB12368002B32D1A36803B1DD60F3
:102FF00020693360036825751B68BB4221D1037FBC
:103000004560022BC46020D0FFF73AFF6368002BB5
:10301000E6D023602046FFF7A5FF3468002CE1D1FD
:10302000EFF3108372B60E4A00211068116003B9E5
:1030300062B628B18468FFF795FF20460028F9D1D1
:10304000F8BD224600219847E0E783689847DDE70E
:10305000013B2360E4E700BF680AFF1F012F000067
:10306000780AFF1F024A136801331360FFF7AEBFEF
:103070006409FF1F08B5FEF73DFEFEF779FE00F07C
:1030800001F8FAE738B52C4C237803B138BD012399
:103090002370FFF7C3FE002842D100F0C5F80028D6
:1030A0003BD100F057F9002834D100F0E9F970BBAA
:1030B00000F062FA40BB00F0DBFA10BB00F054FBFA
:1030C000E0B900232370EFF30583002BDED1EFF38B
:1030D000108172B6194B186828B3194C227812BBAC
:1030E00045691D60012323700DB3AA6101B962B661
:1030F00000254577836898472570C7E700F002FCF4
:10310000DFE700F0FDFBD9E700F0F8FBD3E700F0C4
:10311000F3FBCDE700F0EEFBC7E700F0E9FBC0E70B
:1031200000F0F2FBB9E70029B0D162B638BD054B1B
:103130001D600029DCD1DAE77C0AFF1F700AFF1F3F
:10314000740AFF1F6C0AFF1F30B42948294A2A4B12
:103150002A4D6024E121047011701B78284C082B43
:1031600030D00A2B2748284937D00C2B0CBF3522EA
:103170005D2212232A60236002600B60234B2449E6
:103180001B78244ABBB101230B601360224B2349F7
:103190001B78234A012B26D9042B0FD9082B1ED9C3
:1031A000102B94BF862387230B6013601D4B0122D5
:1031B0001A7030BC70470B601360E7E784230B6024
:1031C0001360F3E700F58E200F4908302122132306
:1031D0002A60236002600B60D0E73922F7E785237D
:1031E0000B601360E2E780230B601360DEE700BF33
:1031F00000400740014007403407FF1F08B003406C
:103200000CB0034008B00B400CB00B407E0AFF1F0F
:1032100020B0034020B00B403507FF1F24B003400F
:1032200024B00B407D0AFF1F054A064B10781B781F
:10323000C0B2DBB2984238BF4030C01A704700BFFE
:10324000840AFF1F850AFF1FF0B4384B1A7912F069
:10325000300F2CD072B6997D01F0FF0200293DD0CD
:1032600062B6334F334938780D78334E1C46C0B2BE
:10327000EDB2431C402BE17928BF0023AB4202F1A1
:10328000FF32C9B21CBFF154184612F0FF02F0D150
:103290002A4B1B68C2B23A704BB1A84236BFC5F187
:1032A0004005401B40192728C4BF01221A701F493E
:1032B000CA78D2B2150616D452060DD51B4B1B790F
:1032C0005B0609D51E4B1F491B6800220A7003B11B
:1032D0001A70164B3C22DA70F0BC70474022D97944
:1032E0005A7462B6E3E70B791C06E5D5164B174E08
:1032F0001C783378E4B2DBB29C420ED0144D01E06E
:10330000A3420AD00133402B28BF00230879E85C90
:10331000C0B2C871087D0728F2D9DBB20349337007
:103320000B79180644BF7C23CB70C5E700A006408C
:10333000840AFF1F850AFF1FC80AFF1F800AFF1F9C
:103340000C0BFF1F080BFF1F100BFF1F090BFF1FAC
:10335000880AFF1F054A064B10781B78C0B2DBB203
:10336000984238BF4030C01A704700BF840BFF1F1F
:10337000190BFF1FF0B4384B1A7912F0300F2CD014
:1033800072B6997D01F0FF0200293DD062B6334F3D
:10339000334938780D78334E1C46C0B2EDB2431C29
:1033A000402BE17928BF0023AB4202F1FF32C9B2C2
:1033B0001CBFF154184612F0FF02F0D12A4B1B68D3
:1033C000C2B23A704BB1A84236BFC5F14005401BAE
:1033D00040192728C4BF01221A701F49CA78D2B2E7
:1033E000150616D452060DD51B4B1B795B0609D565
:1033F0001E4B1F491B6800220A7003B11A70164B3E
:103400003C22DA70F0BC70474022D9795A7462B617
:10341000E3E70B791C06E5D5164B174E1C7833787D
:10342000E4B2DBB29C420ED0144D01E0A3420AD0BC
:103430000133282B28BF00230879E85CC0B2C8718B
:10344000087D0728F2D9DBB2034933700B791806DF
:1034500044BF7C23CB70C5E700B00640840BFF1F40
:10346000190BFF1F440BFF1F140BFF1F880BFF1FBF
:10347000180BFF1F8C0BFF1F850BFF1F1C0BFF1F63
:10348000054A064B10781B78C0B2DBB2984238BFB1
:103490004030C01A704700BF940BFF1F950BFF1FF1
:1034A00030B42B4B1A7994061FD52A48DA79037861
:1034B000294901333F2B0978C8BF00238B42D2B280
:1034C00003D0264CD9B2E2540170254A116861B18B
:1034D000244A1278D2B2934236BFC2F140029B1AFC
:1034E0009B18272BC4BF01230B70194AD378DBB27A
:1034F000180611D45A060DD5154B1B795B0609D554
:10350000194B1A491B6800220A7003B11A70104B3C
:103510002C22DA7030BC704711790906EAD51449BB
:1035200010480C780178C9B28C420DD04A1C272A69
:1035300084BF00210A460F4D054C98BFD1B2AA5C4A
:10354000D2B2E2710170D5E76C21D170D2E700BF31
:1035500000C00640940BFF1F950BFF1FC00BFF1F01
:10356000900BFF1F010CFF1F040CFF1F000CFF1F1F
:10357000080CFF1F980BFF1F054A064B10781B789D
:10358000C0B2DBB2984238BF4030C01A704700BFAB
:10359000100CFF1F110CFF1F30B42B4B1A7994062F
:1035A0001FD52A48DA790378294901333F2B097856
:1035B000C8BF00238B42D2B203D0264CD9B2E2540A
:1035C0000170254A116861B1244A1278D2B293423F
:1035D00036BFC2F140029B1A9B18272BC4BF0123A0
:1035E0000B70194AD378DBB2180611D45A060DD5E0
:1035F000154B1B795B0609D5194B1A491B6800222C
:103600000A7003B11A70104B2C22DA7030BC70476C
:1036100011790906EAD5144910480C780178C9B225
:103620008C420DD04A1C272A84BF00210A460F4D28
:10363000054C98BFD1B2AA5CD2B2E2710170D5E755
:103640006C21D170D2E700BF00D00640100CFF1FE4
:10365000110CFF1F3C0CFF1F0C0CFF1F7D0CFF1FEC
:10366000800CFF1F7C0CFF1F840CFF1F140CFF1F1E
:10367000054A064B10781B78C0B2DBB2984238BFBF
:103680004030C01A704700BF8C0CFF1F8D0CFF1F0D
:1036900030B42B4B1A7994061FD52A48DA7903786F
:1036A000294901333F2B0978C8BF00238B42D2B28E
:1036B00003D0264CD9B2E2540170254A116861B199
:1036C000244A1278D2B2934236BFC2F140029B1A0A
:1036D0009B18272BC4BF01230B70194AD378DBB288
:1036E000180611D45A060DD5154B1B795B0609D562
:1036F000194B1A491B6800220A7003B11A70104B4B
:103700002C22DA7030BC704711790906EAD51449C9
:1037100010480C780178C9B28C420DD04A1C272A77
:1037200084BF00210A460F4D054C98BFD1B2AA5C58
:10373000D2B2E2710170D5E76C21D170D2E700BF3F
:1037400000A00E408C0CFF1F8D0CFF1FB80CFF1F3C
:10375000880CFF1FF90CFF1FFC0CFF1FF80CFF1F4C
:10376000000DFF1F900CFF1F054A064B10781B78B9
:10377000C0B2DBB2984238BF4030C01A704700BFB9
:10378000080DFF1F090DFF1F30B42C4B5A6894021F
:103790001FD52B48DA6803782A4901333F2B097873
:1037A000C8BF00238B4204D0274CD2B2D9B2E25416
:1037B0000170264A116861B1254A1278D2B293424B
:1037C00036BFC2F140029B1A9B18272BC4BF0123AE
:1037D0000B701A4A9368180202D55268110211D46C
:1037E0005A020DD5154B5B685B0209D5194B1A4976
:1037F0001B6800220A7003B11A70184B00221A606D
:1038000030BC7047164A124910780A78D2B29042FA
:103810000DD00132272A84BF00200246114D074CEB
:1038200098BFD0B2AA5CD2B2E2600870D8E70E4866
:103830000A4A0024012104601160D1E700400C40D5
:10384000080DFF1F090DFF1F340DFF1F040DFF1F83
:10385000750DFF1F780DFF1F740DFF1F5801884362
:103860007C0DFF1F0C0DFF1F5C01884310B584B059
:1038700072B6FEF7C1FB184A184B19491160702245
:1038800080211A701A46197013781B06FCD5154B47
:103890001C68FEF7CBFB62B6134B9C429CBF04EB4B
:1038A000840464002046114C01A90A2200F02EF87D
:1038B00001A92046002311F8012B01333AB10A2B4C
:1038C00020F8022FF7D11623237004B010BD5B003F
:1038D000DBB2237004B010BD0400024000000240BF
:1038E000000007410C0002407F969800C407FF1FAC
:1038F000704700BF704700BF704700BF704700BFF0
:10390000704700BF704700BF704700BFF0B44D1E46
:103910002E46002400E00134B0FBF2F302FB13005A
:10392000092800F130078ABF3730F8B2C0B206F874
:10393000010F1846002BEED10A1953704CB11078C4
:1039400015F8016F28700133E01A834202F801690B
:10395000F5DB0846F0BC704770B50F4E0F4D761B77
:10396000B61018BF002405D0013455F8043B984721
:10397000A642F9D10A4E0B4D761B00F071F9B61034
:1039800018BF002406D0013455F8043B9847A642DE
:10399000F9D170BD70BD00BF6C3C00006C3C0000F4
:1039A000783C00006C3C0000024B13B10248FEF76B
:1039B000DBBA704700000000BD39000038B5074D84
:1039C000074C2C1BA41005D0013C55F8043D98472A
:1039D000002CF9D1BDE8384000F04EB900000000DD
:1039E000000000000000000000000000150B0000B7
:1039F000551100007D040000990400006D040000D2
:103A000075040000951700004008FE4340A00440E4
:103A10004408FE4344A004400018FE4300C0044094
:103A20003000FE43309004403400FE4334900440A4
:103A30001C18FE431CC004401018FE4310C0044074
:103A40000818FE4308C004400C18FE430CC0044094
:103A50000C10FE430CB004401010FE4310B00440A4
:103A60001810FE4318B004401C10FE431CB0044064
:103A70001410FE4314B004400418FE4304C0044074
:103A80000010FE4300B004400008FE4300A00440C4
:103A90000408FE4304A004400C08FE430CA00440AC
:103AA0000808FE4308A004401418FE4314C0044054
:103AB0001818FE4318C004400410FE4304B004402C
:103AC0000810FE4308B004406820FE4368D004405C
:103AD0001400FE43149004403800FE433890044024
:103AE0003C00FE433C9004404000FE4340900440B4
:103AF0004808FE4348A004404C08FE434CA0044044
:103B00002808FE4328A004402C08FE432CA00440B3
:103B10006020FE4360D004406420FE4364D0044033
:103B20002010FE4320B004402410FE4324B0044083
:103B30002810FE4328B004402C10FE432CB0044053
:103B40004400FE43449004407000FE4370900440E3
:103B50007400FE43749004406800FE436890044083
:103B60005008FE4350A004405808FE4358A00440AB
:103B70005C08FE435CA004405408FE4354A004408B
:103B80002018FE4320C004402418FE4324C00440F3
:103B90001008FE4310A004401408FE4314A0044083
:103BA0003818FE4338C004403418FE4334C0044083
:103BB0003018FE4330C004403C18FE433CC0044073
:103BC0002C18FE432CC004402820FE4328D004407B
:103BD0002C20FE432CD004400020FE4300D00440A3
:103BE0000420FE4304D004400820FE4308D00440D3
:103BF0000C20FE430CD004401020FE4310D00440A3
:103C00001420FE4314D004400015191500010000D3
:103C10003807FF1F12000000000200006407FF1FAA
:103C20004300000000030000C007FF1F0000000069
:103C3000010309044C07FF1F0000000002030904F0
:103C4000A807FF1F0000000003030904C407FF1FAB
:103C50000000000000000000000000000000000064
:103C6000F8B500BFF8BC08BC9E467047A9390000F3
:083C7000350400006D1F000087
:043C7800F8B500BFDC
:103C7C00FFFFFFFF0A0400001201010102000040D7
:103C8C00C016830400020102030100001803540053
:103C9C00650065006E0073007900640075006900B2
:103CAC006E006F0009024300020100C032090400DB
:103CBC00000102020100052400100105240101018C
:103CCC0004240206052406000107058203100040A7
:103CDC0009040100020A000000070503024000006D
:103CEC0007058402400000001603550053004200F3
:103CFC002000530065007200690061006C00000038
:103D0C00040309040C030000000000000000000084
:0C3D1C000000000000000000000000009B
:00000001FF
